{
  "contractName": "Faucet",
  "abi": [
    {
      "constant": false,
      "inputs": [
        {
          "name": "newBlockLimit",
          "type": "uint256"
        }
      ],
      "name": "setBlockLimit",
      "outputs": [],
      "payable": false,
      "stateMutability": "nonpayable",
      "type": "function"
    },
    {
      "constant": true,
      "inputs": [],
      "name": "amountEther",
      "outputs": [
        {
          "name": "",
          "type": "uint256"
        }
      ],
      "payable": false,
      "stateMutability": "view",
      "type": "function"
    },
    {
      "constant": false,
      "inputs": [
        {
          "name": "account",
          "type": "address"
        }
      ],
      "name": "sendEther",
      "outputs": [],
      "payable": false,
      "stateMutability": "nonpayable",
      "type": "function"
    },
    {
      "constant": true,
      "inputs": [
        {
          "name": "account",
          "type": "address"
        }
      ],
      "name": "checkRemainingBlocks",
      "outputs": [
        {
          "name": "",
          "type": "uint256"
        }
      ],
      "payable": false,
      "stateMutability": "view",
      "type": "function"
    },
    {
      "constant": true,
      "inputs": [],
      "name": "owner",
      "outputs": [
        {
          "name": "",
          "type": "address"
        }
      ],
      "payable": false,
      "stateMutability": "view",
      "type": "function"
    },
    {
      "constant": false,
      "inputs": [
        {
          "name": "newOwner",
          "type": "address"
        }
      ],
      "name": "transferOwnership",
      "outputs": [],
      "payable": false,
      "stateMutability": "nonpayable",
      "type": "function"
    },
    {
      "constant": true,
      "inputs": [],
      "name": "blockLimit",
      "outputs": [
        {
          "name": "",
          "type": "uint256"
        }
      ],
      "payable": false,
      "stateMutability": "view",
      "type": "function"
    },
    {
      "constant": false,
      "inputs": [
        {
          "name": "newAmountEther",
          "type": "uint256"
        }
      ],
      "name": "setAmountEther",
      "outputs": [],
      "payable": false,
      "stateMutability": "nonpayable",
      "type": "function"
    },
    {
      "inputs": [],
      "payable": false,
      "stateMutability": "nonpayable",
      "type": "constructor"
    },
    {
      "payable": true,
      "stateMutability": "payable",
      "type": "fallback"
    },
    {
      "anonymous": false,
      "inputs": [
        {
          "indexed": true,
          "name": "previousOwner",
          "type": "address"
        },
        {
          "indexed": true,
          "name": "newOwner",
          "type": "address"
        }
      ],
      "name": "OwnershipTransferred",
      "type": "event"
    }
  ],
  "bytecode": "0x60606040526121c0600155678ac7230489e80000600255341561002157600080fd5b336000806101000a81548173ffffffffffffffffffffffffffffffffffffffff021916908373ffffffffffffffffffffffffffffffffffffffff16021790555061079b806100706000396000f30060606040526004361061008e576000357c0100000000000000000000000000000000000000000000000000000000900463ffffffff1680631135558514610090578063305d6ccf146100b357806348c981e2146100dc57806378742c5c146101155780638da5cb5b14610162578063f2fde38b146101b7578063f3bcd237146101f0578063fc5954d114610219575b005b341561009b57600080fd5b6100b1600480803590602001909190505061023c565b005b34156100be57600080fd5b6100c66102b0565b6040518082815260200191505060405180910390f35b34156100e757600080fd5b610113600480803573ffffffffffffffffffffffffffffffffffffffff169060200190919050506102b6565b005b341561012057600080fd5b61014c600480803573ffffffffffffffffffffffffffffffffffffffff1690602001909190505061042c565b6040518082815260200191505060405180910390f35b341561016d57600080fd5b6101756104cc565b604051808273ffffffffffffffffffffffffffffffffffffffff1673ffffffffffffffffffffffffffffffffffffffff16815260200191505060405180910390f35b34156101c257600080fd5b6101ee600480803573ffffffffffffffffffffffffffffffffffffffff169060200190919050506104f1565b005b34156101fb57600080fd5b610203610646565b6040518082815260200191505060405180910390f35b341561022457600080fd5b61023a600480803590602001909190505061064c565b005b6000809054906101000a900473ffffffffffffffffffffffffffffffffffffffff1673ffffffffffffffffffffffffffffffffffffffff163373ffffffffffffffffffffffffffffffffffffffff1614151561029757600080fd5b6000811115156102a657600080fd5b8060018190555050565b60025481565b6000809054906101000a900473ffffffffffffffffffffffffffffffffffffffff1673ffffffffffffffffffffffffffffffffffffffff163373ffffffffffffffffffffffffffffffffffffffff1614151561031157600080fd5b8073ffffffffffffffffffffffffffffffffffffffff163073ffffffffffffffffffffffffffffffffffffffff161415151561034c57600080fd5b600073ffffffffffffffffffffffffffffffffffffffff168173ffffffffffffffffffffffffffffffffffffffff161415151561038857600080fd5b60011515610395826106c8565b15151415156103a357600080fd5b43600360008373ffffffffffffffffffffffffffffffffffffffff1673ffffffffffffffffffffffffffffffffffffffff168152602001908152602001600020819055508073ffffffffffffffffffffffffffffffffffffffff166108fc6002549081150290604051600060405180830381858888f19350505050151561042957600080fd5b50565b600080600360008473ffffffffffffffffffffffffffffffffffffffff1673ffffffffffffffffffffffffffffffffffffffff1681526020019081526020016000205411156104c2576001544303600360008473ffffffffffffffffffffffffffffffffffffffff1673ffffffffffffffffffffffffffffffffffffffff168152602001908152602001600020540390506104c7565b600090505b919050565b6000809054906101000a900473ffffffffffffffffffffffffffffffffffffffff1681565b6000809054906101000a900473ffffffffffffffffffffffffffffffffffffffff1673ffffffffffffffffffffffffffffffffffffffff163373ffffffffffffffffffffffffffffffffffffffff1614151561054c57600080fd5b600073ffffffffffffffffffffffffffffffffffffffff168173ffffffffffffffffffffffffffffffffffffffff161415151561058857600080fd5b8073ffffffffffffffffffffffffffffffffffffffff166000809054906101000a900473ffffffffffffffffffffffffffffffffffffffff1673ffffffffffffffffffffffffffffffffffffffff167f8be0079c531659141344cd1fd0a4f28419497f9722a3daafe3b4186f6b6457e060405160405180910390a3806000806101000a81548173ffffffffffffffffffffffffffffffffffffffff021916908373ffffffffffffffffffffffffffffffffffffffff16021790555050565b60015481565b6000809054906101000a900473ffffffffffffffffffffffffffffffffffffffff1673ffffffffffffffffffffffffffffffffffffffff163373ffffffffffffffffffffffffffffffffffffffff161415156106a757600080fd5b670de0b6b3a764000081101515156106be57600080fd5b8060028190555050565b600080600360008473ffffffffffffffffffffffffffffffffffffffff1673ffffffffffffffffffffffffffffffffffffffff16815260200190815260200160002054905080610716610740565b118015610727575061072661074c565b5b15610735576001915061073a565b600091505b50919050565b60006001544303905090565b60006002543073ffffffffffffffffffffffffffffffffffffffff1631119050905600a165627a7a72305820d0fdbfa1211c23cd36cf54fdeb36efd8b375c4c3ee6439e387ca948adce47d870029",
  "source": "pragma solidity ^0.4.18;\n\nimport \"./Ownable.sol\";\n\n\ncontract Faucet is Ownable {\n    uint public blockLimit = 8640; // A day\n    uint public amountEther = 10 ether;\n    mapping (address => uint) lastFaucet;\n\n    // Constructor\n    function Faucet() public Ownable() {\n    }\n\n    function () public payable {}\n\n    // External functions\n    function sendEther(address account) public onlyOwner {\n        require(this != account);\n        require(account != address(0)); // Please, use a normal address and after funds your contract.\n        require(canReceiveEther(account) == true);\n\n        lastFaucet[account] = block.number;\n        account.transfer(amountEther);\n    }\n\n    function setBlockLimit(uint newBlockLimit) public onlyOwner {\n        require(newBlockLimit > 0);\n        blockLimit = newBlockLimit;\n    }\n\n    function setAmountEther(uint newAmountEther) public onlyOwner {\n        require(newAmountEther >= 1 ether);\n        amountEther = newAmountEther;\n    }\n\n    function checkRemainingBlocks(address account) public view returns (uint) {\n        if (lastFaucet[account] > 0) {\n          return lastFaucet[account] - (block.number - blockLimit);\n        }\n        return 0;\n    }\n\n    // Internal and Private functions\n    function canReceiveEther(address account) private view returns (bool) {\n        var lastFaucetBlock = lastFaucet[account];\n\n        if (getBlockNumber() > lastFaucetBlock && checkContractBalance()) {\n            return true;\n        }\n\n        return false;\n    }\n\n    function getBlockNumber() private view returns (uint) {\n        return block.number - blockLimit;\n    }\n\n    function checkContractBalance() private view returns (bool) {\n        return this.balance > amountEther;\n    }\n}\n",
  "sourcePath": "/home/yograterol/projects/opensource/Callisto-Faucet/contract/contracts/Faucet.sol",
  "compiler": {
    "name": "solc",
    "version": "0.4.18+commit.9cf6e910.Emscripten.clang"
  },
  "schemaVersion": "1.0.1",
  "updatedAt": "2017-12-30T20:20:26.755Z"
}