{
  "contractName": "Faucet",
  "abi": [
    {
      "constant": true,
      "inputs": [],
      "name": "amountEther",
      "outputs": [
        {
          "name": "",
          "type": "uint256"
        }
      ],
      "payable": false,
      "stateMutability": "view",
      "type": "function"
    },
    {
      "constant": false,
      "inputs": [],
      "name": "renounceOwnership",
      "outputs": [],
      "payable": false,
      "stateMutability": "nonpayable",
      "type": "function"
    },
    {
      "constant": true,
      "inputs": [],
      "name": "owner",
      "outputs": [
        {
          "name": "",
          "type": "address"
        }
      ],
      "payable": false,
      "stateMutability": "view",
      "type": "function"
    },
    {
      "constant": false,
      "inputs": [
        {
          "name": "_newOwner",
          "type": "address"
        }
      ],
      "name": "transferOwnership",
      "outputs": [],
      "payable": false,
      "stateMutability": "nonpayable",
      "type": "function"
    },
    {
      "constant": true,
      "inputs": [],
      "name": "blockLimit",
      "outputs": [
        {
          "name": "",
          "type": "uint256"
        }
      ],
      "payable": false,
      "stateMutability": "view",
      "type": "function"
    },
    {
      "inputs": [],
      "payable": false,
      "stateMutability": "nonpayable",
      "type": "constructor"
    },
    {
      "payable": true,
      "stateMutability": "payable",
      "type": "fallback"
    },
    {
      "anonymous": false,
      "inputs": [
        {
          "indexed": true,
          "name": "previousOwner",
          "type": "address"
        }
      ],
      "name": "OwnershipRenounced",
      "type": "event"
    },
    {
      "anonymous": false,
      "inputs": [
        {
          "indexed": true,
          "name": "previousOwner",
          "type": "address"
        },
        {
          "indexed": true,
          "name": "newOwner",
          "type": "address"
        }
      ],
      "name": "OwnershipTransferred",
      "type": "event"
    },
    {
      "constant": false,
      "inputs": [
        {
          "name": "account",
          "type": "address"
        }
      ],
      "name": "sendEther",
      "outputs": [],
      "payable": false,
      "stateMutability": "nonpayable",
      "type": "function"
    },
    {
      "constant": false,
      "inputs": [
        {
          "name": "newBlockLimit",
          "type": "uint256"
        }
      ],
      "name": "setBlockLimit",
      "outputs": [],
      "payable": false,
      "stateMutability": "nonpayable",
      "type": "function"
    },
    {
      "constant": false,
      "inputs": [
        {
          "name": "newAmountEther",
          "type": "uint256"
        }
      ],
      "name": "setAmountEther",
      "outputs": [],
      "payable": false,
      "stateMutability": "nonpayable",
      "type": "function"
    },
    {
      "constant": true,
      "inputs": [
        {
          "name": "account",
          "type": "address"
        }
      ],
      "name": "checkRemainingBlocks",
      "outputs": [
        {
          "name": "",
          "type": "uint256"
        }
      ],
      "payable": false,
      "stateMutability": "view",
      "type": "function"
    }
  ],
  "bytecode": "0x60806040526121c0600155678ac7230489e8000060025534801561002257600080fd5b50336000806101000a81548173ffffffffffffffffffffffffffffffffffffffff021916908373ffffffffffffffffffffffffffffffffffffffff16021790555061090a806100726000396000f300608060405260043610610099576000357c0100000000000000000000000000000000000000000000000000000000900463ffffffff168063113555851461009b578063305d6ccf146100c857806348c981e2146100f3578063715018a61461013657806378742c5c1461014d5780638da5cb5b146101a4578063f2fde38b146101fb578063f3bcd2371461023e578063fc5954d114610269575b005b3480156100a757600080fd5b506100c660048036038101908080359060200190929190505050610296565b005b3480156100d457600080fd5b506100dd61030a565b6040518082815260200191505060405180910390f35b3480156100ff57600080fd5b50610134600480360381019080803573ffffffffffffffffffffffffffffffffffffffff169060200190929190505050610310565b005b34801561014257600080fd5b5061014b61048d565b005b34801561015957600080fd5b5061018e600480360381019080803573ffffffffffffffffffffffffffffffffffffffff16906020019092919050505061058f565b6040518082815260200191505060405180910390f35b3480156101b057600080fd5b506101b961062f565b604051808273ffffffffffffffffffffffffffffffffffffffff1673ffffffffffffffffffffffffffffffffffffffff16815260200191505060405180910390f35b34801561020757600080fd5b5061023c600480360381019080803573ffffffffffffffffffffffffffffffffffffffff169060200190929190505050610654565b005b34801561024a57600080fd5b506102536106bb565b6040518082815260200191505060405180910390f35b34801561027557600080fd5b50610294600480360381019080803590602001909291905050506106c1565b005b6000809054906101000a900473ffffffffffffffffffffffffffffffffffffffff1673ffffffffffffffffffffffffffffffffffffffff163373ffffffffffffffffffffffffffffffffffffffff161415156102f157600080fd5b60008111151561030057600080fd5b8060018190555050565b60025481565b6000809054906101000a900473ffffffffffffffffffffffffffffffffffffffff1673ffffffffffffffffffffffffffffffffffffffff163373ffffffffffffffffffffffffffffffffffffffff1614151561036b57600080fd5b8073ffffffffffffffffffffffffffffffffffffffff163073ffffffffffffffffffffffffffffffffffffffff16141515156103a657600080fd5b600073ffffffffffffffffffffffffffffffffffffffff168173ffffffffffffffffffffffffffffffffffffffff16141515156103e257600080fd5b600115156103ef8261073d565b15151415156103fd57600080fd5b43600360008373ffffffffffffffffffffffffffffffffffffffff1673ffffffffffffffffffffffffffffffffffffffff168152602001908152602001600020819055508073ffffffffffffffffffffffffffffffffffffffff166108fc6002549081150290604051600060405180830381858888f19350505050158015610489573d6000803e3d6000fd5b5050565b6000809054906101000a900473ffffffffffffffffffffffffffffffffffffffff1673ffffffffffffffffffffffffffffffffffffffff163373ffffffffffffffffffffffffffffffffffffffff161415156104e857600080fd5b6000809054906101000a900473ffffffffffffffffffffffffffffffffffffffff1673ffffffffffffffffffffffffffffffffffffffff167ff8df31144d9c2f0f6b59d69b8b98abd5459d07f2742c4df920b25aae33c6482060405160405180910390a260008060006101000a81548173ffffffffffffffffffffffffffffffffffffffff021916908373ffffffffffffffffffffffffffffffffffffffff160217905550565b600080600360008473ffffffffffffffffffffffffffffffffffffffff1673ffffffffffffffffffffffffffffffffffffffff168152602001908152602001600020541115610625576001544303600360008473ffffffffffffffffffffffffffffffffffffffff1673ffffffffffffffffffffffffffffffffffffffff1681526020019081526020016000205403905061062a565b600090505b919050565b6000809054906101000a900473ffffffffffffffffffffffffffffffffffffffff1681565b6000809054906101000a900473ffffffffffffffffffffffffffffffffffffffff1673ffffffffffffffffffffffffffffffffffffffff163373ffffffffffffffffffffffffffffffffffffffff161415156106af57600080fd5b6106b8816107b5565b50565b60015481565b6000809054906101000a900473ffffffffffffffffffffffffffffffffffffffff1673ffffffffffffffffffffffffffffffffffffffff163373ffffffffffffffffffffffffffffffffffffffff1614151561071c57600080fd5b670de0b6b3a7640000811015151561073357600080fd5b8060028190555050565b600080600360008473ffffffffffffffffffffffffffffffffffffffff1673ffffffffffffffffffffffffffffffffffffffff1681526020019081526020016000205490508061078b6108af565b11801561079c575061079b6108bb565b5b156107aa57600191506107af565b600091505b50919050565b600073ffffffffffffffffffffffffffffffffffffffff168173ffffffffffffffffffffffffffffffffffffffff16141515156107f157600080fd5b8073ffffffffffffffffffffffffffffffffffffffff166000809054906101000a900473ffffffffffffffffffffffffffffffffffffffff1673ffffffffffffffffffffffffffffffffffffffff167f8be0079c531659141344cd1fd0a4f28419497f9722a3daafe3b4186f6b6457e060405160405180910390a3806000806101000a81548173ffffffffffffffffffffffffffffffffffffffff021916908373ffffffffffffffffffffffffffffffffffffffff16021790555050565b60006001544303905090565b60006002543073ffffffffffffffffffffffffffffffffffffffff1631119050905600a165627a7a72305820ffa4eb94852afe2adba7390748c9fd9838132d2c9129938a9778e48f6324ca720029",
  "source": "pragma solidity ^0.4.24;\n\nimport \"./Ownable.sol\";\n\n\ncontract Faucet is Ownable {\n    uint public blockLimit = 8640; // A day\n    uint public amountEther = 10 ether;\n    mapping (address => uint) lastFaucet;\n\n    // Constructor\n    function Faucet() public Ownable() {\n    }\n\n    function () public payable {}\n\n    // External functions\n    function sendEther(address account) public onlyOwner {\n        require(address(this) != account);\n        require(account != address(0));\n        require(canReceiveEther(account) == true);\n\n        lastFaucet[account] = block.number;\n        account.transfer(amountEther);\n    }\n\n    function setBlockLimit(uint newBlockLimit) public onlyOwner {\n        require(newBlockLimit > 0);\n        blockLimit = newBlockLimit;\n    }\n\n    function setAmountEther(uint newAmountEther) public onlyOwner {\n        require(newAmountEther >= 1 ether);\n        amountEther = newAmountEther;\n    }\n\n    function checkRemainingBlocks(address account) public view returns (uint) {\n        if (lastFaucet[account] > 0) {\n          return lastFaucet[account] - (block.number - blockLimit);\n        }\n        return 0;\n    }\n\n    // Internal and Private functions\n    function canReceiveEther(address account) private view returns (bool) {\n        var lastFaucetBlock = lastFaucet[account];\n\n        if (getBlockNumber() > lastFaucetBlock && checkContractBalance()) {\n            return true;\n        }\n\n        return false;\n    }\n\n    function getBlockNumber() private view returns (uint) {\n        return block.number - blockLimit;\n    }\n\n    function checkContractBalance() private view returns (bool) {\n        return address(this).balance > amountEther;\n    }\n}\n",
  "sourcePath": "/Users/yograterol/projects/opensource/Callisto-Faucet/contract/contracts/Faucet.sol",
  "compiler": {
    "name": "solc",
    "version": "0.4.24+commit.e67f0147.Emscripten.clang"
  },
  "schemaVersion": "2.0.1",
  "updatedAt": "2018-08-07T01:56:14.273Z"
}